{
  "_format": "hh-sol-artifact-1",
  "contractName": "CrowdFund",
  "sourceName": "contracts/CrowdFund.sol",
  "abi": [
    {
      "inputs": [],
      "stateMutability": "nonpayable",
      "type": "constructor"
    },
    {
      "anonymous": false,
      "inputs": [
        {
          "indexed": true,
          "internalType": "address",
          "name": "by",
          "type": "address"
        },
        {
          "indexed": true,
          "internalType": "uint256",
          "name": "campaign_id",
          "type": "uint256"
        },
        {
          "indexed": false,
          "internalType": "string",
          "name": "cid",
          "type": "string"
        }
      ],
      "name": "CampaignCreated",
      "type": "event"
    },
    {
      "anonymous": false,
      "inputs": [
        {
          "indexed": true,
          "internalType": "address",
          "name": "by",
          "type": "address"
        },
        {
          "indexed": true,
          "internalType": "uint256",
          "name": "campaign_id",
          "type": "uint256"
        },
        {
          "indexed": false,
          "internalType": "string",
          "name": "newCid",
          "type": "string"
        }
      ],
      "name": "CampaignUpdated",
      "type": "event"
    },
    {
      "anonymous": false,
      "inputs": [
        {
          "indexed": true,
          "internalType": "address",
          "name": "from",
          "type": "address"
        },
        {
          "indexed": true,
          "internalType": "address",
          "name": "to",
          "type": "address"
        },
        {
          "indexed": false,
          "internalType": "uint256",
          "name": "amount",
          "type": "uint256"
        },
        {
          "indexed": true,
          "internalType": "uint256",
          "name": "campaign_id",
          "type": "uint256"
        }
      ],
      "name": "FundRecieved",
      "type": "event"
    },
    {
      "anonymous": false,
      "inputs": [
        {
          "indexed": true,
          "internalType": "address",
          "name": "by",
          "type": "address"
        },
        {
          "indexed": false,
          "internalType": "uint256",
          "name": "amount",
          "type": "uint256"
        },
        {
          "indexed": false,
          "internalType": "address",
          "name": "to",
          "type": "address"
        }
      ],
      "name": "FundWithdrawed",
      "type": "event"
    },
    {
      "inputs": [
        {
          "internalType": "uint256",
          "name": "",
          "type": "uint256"
        }
      ],
      "name": "amountOf",
      "outputs": [
        {
          "internalType": "uint256",
          "name": "",
          "type": "uint256"
        }
      ],
      "stateMutability": "view",
      "type": "function"
    },
    {
      "inputs": [
        {
          "internalType": "address",
          "name": "",
          "type": "address"
        }
      ],
      "name": "balanceOf",
      "outputs": [
        {
          "internalType": "uint256",
          "name": "",
          "type": "uint256"
        }
      ],
      "stateMutability": "view",
      "type": "function"
    },
    {
      "inputs": [
        {
          "internalType": "address",
          "name": "",
          "type": "address"
        },
        {
          "internalType": "uint256",
          "name": "",
          "type": "uint256"
        }
      ],
      "name": "campaignList",
      "outputs": [
        {
          "internalType": "uint256",
          "name": "id",
          "type": "uint256"
        }
      ],
      "stateMutability": "view",
      "type": "function"
    },
    {
      "inputs": [
        {
          "internalType": "string",
          "name": "cid",
          "type": "string"
        }
      ],
      "name": "createCampaign",
      "outputs": [],
      "stateMutability": "nonpayable",
      "type": "function"
    },
    {
      "inputs": [
        {
          "internalType": "uint256",
          "name": "_campaignId",
          "type": "uint256"
        }
      ],
      "name": "donate",
      "outputs": [],
      "stateMutability": "payable",
      "type": "function"
    },
    {
      "inputs": [
        {
          "internalType": "uint256",
          "name": "_campaignId",
          "type": "uint256"
        }
      ],
      "name": "getCampaignCID",
      "outputs": [
        {
          "internalType": "string",
          "name": "",
          "type": "string"
        }
      ],
      "stateMutability": "view",
      "type": "function"
    },
    {
      "inputs": [
        {
          "internalType": "address",
          "name": "_address",
          "type": "address"
        }
      ],
      "name": "getCampaignList",
      "outputs": [
        {
          "components": [
            {
              "internalType": "address",
              "name": "createdBy",
              "type": "address"
            },
            {
              "internalType": "string",
              "name": "cid",
              "type": "string"
            },
            {
              "internalType": "bool",
              "name": "exists",
              "type": "bool"
            },
            {
              "internalType": "enum CrowdFund.campaignState",
              "name": "state",
              "type": "uint8"
            },
            {
              "internalType": "address[]",
              "name": "donors",
              "type": "address[]"
            }
          ],
          "internalType": "struct CrowdFund.Campaign[]",
          "name": "",
          "type": "tuple[]"
        }
      ],
      "stateMutability": "view",
      "type": "function"
    },
    {
      "inputs": [
        {
          "internalType": "uint256",
          "name": "_campaignId",
          "type": "uint256"
        }
      ],
      "name": "getDonors",
      "outputs": [
        {
          "internalType": "address[]",
          "name": "",
          "type": "address[]"
        }
      ],
      "stateMutability": "view",
      "type": "function"
    },
    {
      "inputs": [
        {
          "internalType": "uint256",
          "name": "_campaignId",
          "type": "uint256"
        }
      ],
      "name": "pauseCampaign",
      "outputs": [],
      "stateMutability": "nonpayable",
      "type": "function"
    },
    {
      "inputs": [
        {
          "internalType": "uint256",
          "name": "_campaignId",
          "type": "uint256"
        }
      ],
      "name": "unpauseCampaign",
      "outputs": [],
      "stateMutability": "nonpayable",
      "type": "function"
    },
    {
      "inputs": [
        {
          "internalType": "uint256",
          "name": "_campaignId",
          "type": "uint256"
        },
        {
          "internalType": "string",
          "name": "_newCid",
          "type": "string"
        }
      ],
      "name": "updateCampaignCID",
      "outputs": [],
      "stateMutability": "nonpayable",
      "type": "function"
    },
    {
      "inputs": [
        {
          "internalType": "address",
          "name": "_address",
          "type": "address"
        },
        {
          "internalType": "uint256",
          "name": "amount",
          "type": "uint256"
        }
      ],
      "name": "withdrawFund",
      "outputs": [],
      "stateMutability": "nonpayable",
      "type": "function"
    }
  ],
  "bytecode": "0x608060405234801561001057600080fd5b506000808190555061227b806100276000396000f3fe6080604052600436106100a75760003560e01c8063d5047ae211610064578063d5047ae2146101f2578063de99347a1461022f578063e8eb228414610258578063f14faf6f14610295578063f7c8d221146102b1578063fdbf9ff1146102da576100a7565b806301714168146100ac5780631c15876b146100e9578063295165111461012657806343a19a651461016357806370a082311461018c578063a238c569146101c9575b600080fd5b3480156100b857600080fd5b506100d360048036038101906100ce91906114ad565b610303565b6040516100e091906117f9565b60405180910390f35b3480156100f557600080fd5b50610110600480360381019061010b9190611851565b61064d565b60405161011d91906118c8565b60405180910390f35b34801561013257600080fd5b5061014d60048036038101906101489190611851565b6108ad565b60405161015a9190611959565b60405180910390f35b34801561016f57600080fd5b5061018a60048036038101906101859190611851565b610951565b005b34801561019857600080fd5b506101b360048036038101906101ae91906114ad565b610a39565b6040516101c0919061198a565b60405180910390f35b3480156101d557600080fd5b506101f060048036038101906101eb9190611ada565b610a51565b005b3480156101fe57600080fd5b5061021960048036038101906102149190611b36565b610b6e565b604051610226919061198a565b60405180910390f35b34801561023b57600080fd5b5061025660048036038101906102519190611851565b610ba5565b005b34801561026457600080fd5b5061027f600480360381019061027a9190611851565b610c8c565b60405161028c919061198a565b60405180910390f35b6102af60048036038101906102aa9190611851565b610ca4565b005b3480156102bd57600080fd5b506102d860048036038101906102d39190611b36565b610eca565b005b3480156102e657600080fd5b5061030160048036038101906102fc9190611b76565b6110a2565b005b60606000600260008473ffffffffffffffffffffffffffffffffffffffff1673ffffffffffffffffffffffffffffffffffffffff168152602001908152602001600020805480602002602001604051908101604052809291908181526020016000905b8282101561039e5783829060005260206000200160405180602001604052908160008201548152505081526020019060010190610366565b5050505090506000815167ffffffffffffffff8111156103c1576103c06119af565b5b6040519080825280602002602001820160405280156103fa57816020015b6103e761133b565b8152602001906001900390816103df5790505b50905060005b82518110156106425760006001600085848151811061042257610421611bbf565b5b60200260200101516000015181526020019081526020016000206040518060a00160405290816000820160009054906101000a900473ffffffffffffffffffffffffffffffffffffffff1673ffffffffffffffffffffffffffffffffffffffff1673ffffffffffffffffffffffffffffffffffffffff1681526020016001820180546104ad90611c1d565b80601f01602080910402602001604051908101604052809291908181526020018280546104d990611c1d565b80156105265780601f106104fb57610100808354040283529160200191610526565b820191906000526020600020905b81548152906001019060200180831161050957829003601f168201915b505050505081526020016002820160009054906101000a900460ff161515151581526020016002820160019054906101000a900460ff16600281111561056f5761056e6115c0565b5b6002811115610581576105806115c0565b5b81526020016003820180548060200260200160405190810160405280929190818152602001828054801561060a57602002820191906000526020600020905b8160009054906101000a900473ffffffffffffffffffffffffffffffffffffffff1673ffffffffffffffffffffffffffffffffffffffff16815260200190600101908083116105c0575b50505050508152505090508083838151811061062957610628611bbf565b5b6020026020010181905250508080600101915050610400565b508092505050919050565b60606001600083815260200190815260200160002060020160009054906101000a900460ff166106b2576040517f08c379a00000000000000000000000000000000000000000000000000000000081526004016106a990611c9a565b60405180910390fd5b6000600160008481526020019081526020016000206040518060a00160405290816000820160009054906101000a900473ffffffffffffffffffffffffffffffffffffffff1673ffffffffffffffffffffffffffffffffffffffff1673ffffffffffffffffffffffffffffffffffffffff16815260200160018201805461073890611c1d565b80601f016020809104026020016040519081016040528092919081815260200182805461076490611c1d565b80156107b15780601f10610786576101008083540402835291602001916107b1565b820191906000526020600020905b81548152906001019060200180831161079457829003601f168201915b505050505081526020016002820160009054906101000a900460ff161515151581526020016002820160019054906101000a900460ff1660028111156107fa576107f96115c0565b5b600281111561080c5761080b6115c0565b5b81526020016003820180548060200260200160405190810160405280929190818152602001828054801561089557602002820191906000526020600020905b8160009054906101000a900473ffffffffffffffffffffffffffffffffffffffff1673ffffffffffffffffffffffffffffffffffffffff168152602001906001019080831161084b575b50505050508152505090508060200151915050919050565b60606001600083815260200190815260200160002060030180548060200260200160405190810160405280929190818152602001828054801561094557602002820191906000526020600020905b8160009054906101000a900473ffffffffffffffffffffffffffffffffffffffff1673ffffffffffffffffffffffffffffffffffffffff16815260200190600101908083116108fb575b50505050509050919050565b806001600082815260200190815260200160002060000160009054906101000a900473ffffffffffffffffffffffffffffffffffffffff1673ffffffffffffffffffffffffffffffffffffffff163373ffffffffffffffffffffffffffffffffffffffff16146109f6576040517f08c379a00000000000000000000000000000000000000000000000000000000081526004016109ed90611d06565b60405180910390fd5b60006001600084815260200190815260200160002060020160016101000a81548160ff02191690836002811115610a3057610a2f6115c0565b5b02179055505050565b60046020528060005260406000206000915090505481565b816001600082815260200190815260200160002060000160009054906101000a900473ffffffffffffffffffffffffffffffffffffffff1673ffffffffffffffffffffffffffffffffffffffff163373ffffffffffffffffffffffffffffffffffffffff1614610af6576040517f08c379a0000000000000000000000000000000000000000000000000000000008152600401610aed90611d06565b60405180910390fd5b81600160008581526020019081526020016000206001019081610b199190611ed2565b50823373ffffffffffffffffffffffffffffffffffffffff167f1653bd9ca268306d053c6be9943b29afde1a4e8db4b3f601e11ed8cb74fb575c84604051610b6191906118c8565b60405180910390a3505050565b60026020528160005260406000208181548110610b8a57600080fd5b90600052602060002001600091509150508060000154905081565b806001600082815260200190815260200160002060000160009054906101000a900473ffffffffffffffffffffffffffffffffffffffff1673ffffffffffffffffffffffffffffffffffffffff163373ffffffffffffffffffffffffffffffffffffffff1614610c4a576040517f08c379a0000000000000000000000000000000000000000000000000000000008152600401610c4190611d06565b60405180910390fd5b600180600084815260200190815260200160002060020160016101000a81548160ff02191690836002811115610c8357610c826115c0565b5b02179055505050565b60036020528060005260406000206000915090505481565b60006002811115610cb857610cb76115c0565b5b6001600083815260200190815260200160002060020160019054906101000a900460ff166002811115610cee57610ced6115c0565b5b14610d2e576040517f08c379a0000000000000000000000000000000000000000000000000000000008152600401610d2590611ff0565b60405180910390fd5b60006001600083815260200190815260200160002060000160009054906101000a900473ffffffffffffffffffffffffffffffffffffffff16905034600360008481526020019081526020016000206000828254610d8c919061203f565b9250508190555034600460008373ffffffffffffffffffffffffffffffffffffffff1673ffffffffffffffffffffffffffffffffffffffff1681526020019081526020016000206000828254610de2919061203f565b9250508190555060016000838152602001908152602001600020600301339080600181540180825580915050600190039060005260206000200160009091909190916101000a81548173ffffffffffffffffffffffffffffffffffffffff021916908373ffffffffffffffffffffffffffffffffffffffff160217905550818173ffffffffffffffffffffffffffffffffffffffff163373ffffffffffffffffffffffffffffffffffffffff167f134f851cd1914022c8fb0106b812ec82267d622dff1f292f510dd102c7c45f0c34604051610ebe919061198a565b60405180910390a45050565b80600460003373ffffffffffffffffffffffffffffffffffffffff1673ffffffffffffffffffffffffffffffffffffffff1681526020019081526020016000205411610f4b576040517f08c379a0000000000000000000000000000000000000000000000000000000008152600401610f42906120bf565b60405180910390fd5b60008273ffffffffffffffffffffffffffffffffffffffff1682604051610f7190612110565b60006040518083038185875af1925050503d8060008114610fae576040519150601f19603f3d011682016040523d82523d6000602084013e610fb3565b606091505b5050905080610ff7576040517f08c379a0000000000000000000000000000000000000000000000000000000008152600401610fee90612171565b60405180910390fd5b81600460003373ffffffffffffffffffffffffffffffffffffffff1673ffffffffffffffffffffffffffffffffffffffff16815260200190815260200160002060008282546110469190612191565b925050819055503373ffffffffffffffffffffffffffffffffffffffff167fd771f523ad6618f4275c6ab178452f3dabb1660938d831b6f9d09a0abb19f8ba83856040516110959291906121d4565b60405180910390a2505050565b60006110ac611315565b90506040518060a001604052803373ffffffffffffffffffffffffffffffffffffffff168152602001838152602001600115158152602001600060028111156110f8576110f76115c0565b5b8152602001600067ffffffffffffffff811115611118576111176119af565b5b6040519080825280602002602001820160405280156111465781602001602082028036833780820191505090505b508152506001600083815260200190815260200160002060008201518160000160006101000a81548173ffffffffffffffffffffffffffffffffffffffff021916908373ffffffffffffffffffffffffffffffffffffffff16021790555060208201518160010190816111b99190611ed2565b5060408201518160020160006101000a81548160ff02191690831515021790555060608201518160020160016101000a81548160ff02191690836002811115611205576112046115c0565b5b02179055506080820151816003019080519060200190611226929190611394565b50905050600260003373ffffffffffffffffffffffffffffffffffffffff1673ffffffffffffffffffffffffffffffffffffffff1681526020019081526020016000206040518060200160405280838152509080600181540180825580915050600190039060005260206000200160009091909190915060008201518160000155505060006003600083815260200190815260200160002081905550803373ffffffffffffffffffffffffffffffffffffffff167f0ebe94f361ce4504efd3def3f3b3536780036866339485a26cf48e95ff61b6a58460405161130991906118c8565b60405180910390a35050565b600080600054905060008081548092919061132f906121fd565b91905055508091505090565b6040518060a00160405280600073ffffffffffffffffffffffffffffffffffffffff1681526020016060815260200160001515815260200160006002811115611387576113866115c0565b5b8152602001606081525090565b82805482825590600052602060002090810192821561140d579160200282015b8281111561140c5782518260006101000a81548173ffffffffffffffffffffffffffffffffffffffff021916908373ffffffffffffffffffffffffffffffffffffffff160217905550916020019190600101906113b4565b5b50905061141a919061141e565b5090565b5b8082111561143757600081600090555060010161141f565b5090565b6000604051905090565b600080fd5b600080fd5b600073ffffffffffffffffffffffffffffffffffffffff82169050919050565b600061147a8261144f565b9050919050565b61148a8161146f565b811461149557600080fd5b50565b6000813590506114a781611481565b92915050565b6000602082840312156114c3576114c2611445565b5b60006114d184828501611498565b91505092915050565b600081519050919050565b600082825260208201905092915050565b6000819050602082019050919050565b61150f8161146f565b82525050565b600081519050919050565b600082825260208201905092915050565b60005b8381101561154f578082015181840152602081019050611534565b60008484015250505050565b6000601f19601f8301169050919050565b600061157782611515565b6115818185611520565b9350611591818560208601611531565b61159a8161155b565b840191505092915050565b60008115159050919050565b6115ba816115a5565b82525050565b7f4e487b7100000000000000000000000000000000000000000000000000000000600052602160045260246000fd5b60038110611600576115ff6115c0565b5b50565b6000819050611611826115ef565b919050565b600061162182611603565b9050919050565b61163181611616565b82525050565b600081519050919050565b600082825260208201905092915050565b6000819050602082019050919050565b600061166f8383611506565b60208301905092915050565b6000602082019050919050565b600061169382611637565b61169d8185611642565b93506116a883611653565b8060005b838110156116d95781516116c08882611663565b97506116cb8361167b565b9250506001810190506116ac565b5085935050505092915050565b600060a0830160008301516116fe6000860182611506565b5060208301518482036020860152611716828261156c565b915050604083015161172b60408601826115b1565b50606083015161173e6060860182611628565b50608083015184820360808601526117568282611688565b9150508091505092915050565b600061176f83836116e6565b905092915050565b6000602082019050919050565b600061178f826114da565b61179981856114e5565b9350836020820285016117ab856114f6565b8060005b858110156117e757848403895281516117c88582611763565b94506117d383611777565b925060208a019950506001810190506117af565b50829750879550505050505092915050565b600060208201905081810360008301526118138184611784565b905092915050565b6000819050919050565b61182e8161181b565b811461183957600080fd5b50565b60008135905061184b81611825565b92915050565b60006020828403121561186757611866611445565b5b60006118758482850161183c565b91505092915050565b600082825260208201905092915050565b600061189a82611515565b6118a4818561187e565b93506118b4818560208601611531565b6118bd8161155b565b840191505092915050565b600060208201905081810360008301526118e2818461188f565b905092915050565b600082825260208201905092915050565b600061190682611637565b61191081856118ea565b935061191b83611653565b8060005b8381101561194c5781516119338882611663565b975061193e8361167b565b92505060018101905061191f565b5085935050505092915050565b6000602082019050818103600083015261197381846118fb565b905092915050565b6119848161181b565b82525050565b600060208201905061199f600083018461197b565b92915050565b600080fd5b600080fd5b7f4e487b7100000000000000000000000000000000000000000000000000000000600052604160045260246000fd5b6119e78261155b565b810181811067ffffffffffffffff82111715611a0657611a056119af565b5b80604052505050565b6000611a1961143b565b9050611a2582826119de565b919050565b600067ffffffffffffffff821115611a4557611a446119af565b5b611a4e8261155b565b9050602081019050919050565b82818337600083830152505050565b6000611a7d611a7884611a2a565b611a0f565b905082815260208101848484011115611a9957611a986119aa565b5b611aa4848285611a5b565b509392505050565b600082601f830112611ac157611ac06119a5565b5b8135611ad1848260208601611a6a565b91505092915050565b60008060408385031215611af157611af0611445565b5b6000611aff8582860161183c565b925050602083013567ffffffffffffffff811115611b2057611b1f61144a565b5b611b2c85828601611aac565b9150509250929050565b60008060408385031215611b4d57611b4c611445565b5b6000611b5b85828601611498565b9250506020611b6c8582860161183c565b9150509250929050565b600060208284031215611b8c57611b8b611445565b5b600082013567ffffffffffffffff811115611baa57611ba961144a565b5b611bb684828501611aac565b91505092915050565b7f4e487b7100000000000000000000000000000000000000000000000000000000600052603260045260246000fd5b7f4e487b7100000000000000000000000000000000000000000000000000000000600052602260045260246000fd5b60006002820490506001821680611c3557607f821691505b602082108103611c4857611c47611bee565b5b50919050565b7f494e56414c494420494400000000000000000000000000000000000000000000600082015250565b6000611c84600a8361187e565b9150611c8f82611c4e565b602082019050919050565b60006020820190508181036000830152611cb381611c77565b9050919050565b7f554e415554484f52495a45442021000000000000000000000000000000000000600082015250565b6000611cf0600e8361187e565b9150611cfb82611cba565b602082019050919050565b60006020820190508181036000830152611d1f81611ce3565b9050919050565b60008190508160005260206000209050919050565b60006020601f8301049050919050565b600082821b905092915050565b600060088302611d887fffffffffffffffffffffffffffffffffffffffffffffffffffffffffffffffff82611d4b565b611d928683611d4b565b95508019841693508086168417925050509392505050565b6000819050919050565b6000611dcf611dca611dc58461181b565b611daa565b61181b565b9050919050565b6000819050919050565b611de983611db4565b611dfd611df582611dd6565b848454611d58565b825550505050565b600090565b611e12611e05565b611e1d818484611de0565b505050565b5b81811015611e4157611e36600082611e0a565b600181019050611e23565b5050565b601f821115611e8657611e5781611d26565b611e6084611d3b565b81016020851015611e6f578190505b611e83611e7b85611d3b565b830182611e22565b50505b505050565b600082821c905092915050565b6000611ea960001984600802611e8b565b1980831691505092915050565b6000611ec28383611e98565b9150826002028217905092915050565b611edb82611515565b67ffffffffffffffff811115611ef457611ef36119af565b5b611efe8254611c1d565b611f09828285611e45565b600060209050601f831160018114611f3c5760008415611f2a578287015190505b611f348582611eb6565b865550611f9c565b601f198416611f4a86611d26565b60005b82811015611f7257848901518255600182019150602085019450602081019050611f4d565b86831015611f8f5784890151611f8b601f891682611e98565b8355505b6001600288020188555050505b505050505050565b7f43414d504149474e204e4f542041435449564500000000000000000000000000600082015250565b6000611fda60138361187e565b9150611fe582611fa4565b602082019050919050565b6000602082019050818103600083015261200981611fcd565b9050919050565b7f4e487b7100000000000000000000000000000000000000000000000000000000600052601160045260246000fd5b600061204a8261181b565b91506120558361181b565b925082820190508082111561206d5761206c612010565b5b92915050565b7f496e73756666696369656e742042616c616e6365000000000000000000000000600082015250565b60006120a960148361187e565b91506120b482612073565b602082019050919050565b600060208201905081810360008301526120d88161209c565b9050919050565b600081905092915050565b50565b60006120fa6000836120df565b9150612105826120ea565b600082019050919050565b600061211b826120ed565b9150819050919050565b7f5452414e53414354494f4e204641494c45440000000000000000000000000000600082015250565b600061215b60128361187e565b915061216682612125565b602082019050919050565b6000602082019050818103600083015261218a8161214e565b9050919050565b600061219c8261181b565b91506121a78361181b565b92508282039050818111156121bf576121be612010565b5b92915050565b6121ce8161146f565b82525050565b60006040820190506121e9600083018561197b565b6121f660208301846121c5565b9392505050565b60006122088261181b565b91507fffffffffffffffffffffffffffffffffffffffffffffffffffffffffffffffff820361223a57612239612010565b5b60018201905091905056fea2646970667358221220646b2e9e5795a54e8efd907ee8d07c5a3dbbfc275208f2d81cdd001e5d43484564736f6c63430008180033",
  "linkReferences": {},
  "deployedLinkReferences": {}
}